:020000040800F2
:10000000000003208D2100084B1F0008511F00082D
:10001000571F00085D1F0008631F00080000000054
:10002000000000000000000000000000691F000840
:10003000771F000800000000851F0008931F0008BC
:10004000DD210008DD210008DD210008DD21000898
:10005000DD210008DD210008DD210008DD21000888
:10006000DD210008DD210008DD210008DD21000878
:10007000DD210008DD210008DD210008DD21000868
:10008000DD210008DD210008DD210008DD21000858
:10009000DD210008DD210008DD210008DD21000848
:1000A000DD210008DD210008DD210008DD21000838
:1000B000DD210008DD210008DD210008DD21000828
:1000C000DD210008DD210008DD210008DD21000818
:1000D000DD210008A11F0008DD210008DD21000846
:1000E000DD210008DD210008DD210008DD210008F8
:1000F000DD210008DD210008DD210008DD210008E8
:10010000DD210008DD210008DD210008DD210008D7
:10011000DD210008DD210008DD210008DD210008C7
:10012000DD210008DD210008DD210008DD210008B7
:10013000DD210008DD210008DD210008DD210008A7
:10014000DD210008DD210008DD210008DD21000897
:10015000DD210008DD210008DD210008DD21000887
:10016000DD210008DD210008DD210008DD21000877
:10017000DD210008DD210008DD210008000000006D
:10018000DD210008DD210008DD210008DD21000857
:10019000DD210008DD210008DD210008DD21000847
:0C01A000DD210008DD210008DD21000841
:1001B00010B5054C237833B9044B13B10448AFF3A1
:1001C00000800123237010BD7C000020000000008F
:1001D0006456000808B5034B1BB103490348AFF34D
:1001E000008008BD00000000800000206456000868
:1001F00010F8012B11F8013B012A28BF9A42F7D0D1
:10020000D01A7047034613F8012B002AFBD1181AA5
:1002100001387047000000000000000000000000EE
:1002200001F0FF01102A2BDB10F0070F08D010F8A7
:10023000013B013A8B422DD010F0070F42B3F6D1AB
:10024000F0B441EA012141EA014122F007047FF0C4
:1002500000070023F0E80256083C85EA010586EA1B
:10026000010685FA47F5A3FA87F586FA47F6A5FA57
:1002700087F68EB9EED1F0BC01F0FF0102F0070263
:1002800032B110F8013B013A83EA010313B1F8D10E
:100290000020704701387047002D06BF35460338EF
:1002A000073815F0010F07D1013015F4807F02BF28
:1002B000013015F4C03F0130F0BC0138704700BF79
:1002C00053B94AB9002908BF00281CBF4FF0FF31BD
:1002D0004FF0FF3000F070B9ADF1080C6DE904CEBD
:1002E00000F006F8DDF804E0DDE9022304B0704711
:1002F0002DE9F047089E0D4604460F46002B4AD1D3
:100300008A42944665D9B2FA82F343B102FA03FCF9
:10031000C3F120029F4020FA02F217439C404FEAAB
:100320001C4E1FFA8CF5B7FBFEF1220C0EFB117769
:1003300042EA074201FB05F090420AD91CEB020297
:1003400001F1FF3780F01C81904240F2198102399F
:100350006244121AA4B2B2FBFEF00EFB102244EA71
:10036000024400FB05F5A5420AD91CEB040400F188
:10037000FF3280F00781A54240F2048164440238D4
:1003800040EA0140641B00211EB1DC400023C6E9A5
:100390000043BDE8F0878B4208D9002E00F0ED80C5
:1003A0000021C6E900050846BDE8F087B3FA83F1ED
:1003B000002949D1AB4202D3824200F2F880841A6C
:1003C00065EB030201201746002EE2D0C6E9004784
:1003D000DFE702B9FFDEB2FA82F3002B40F0908033
:1003E0008A1A4FEA1C471FFA8CFE0121B2FBF7F56F
:1003F00007FB1520220C42EA00420EFB05F090425A
:1004000008D91CEB020205F1FF3802D2904200F23B
:10041000CB804546121AA4B2B2FBF7F007FB1022BC
:1004200044EA02440EFB00FEA64508D91CEB040476
:1004300000F1FF3202D2A64500F2BB801046A4EBC9
:100440000E0440EA05409FE7C1F120078B4022FAE5
:1004500007FC4CEA030C05FA01F420FA07F3FD400F
:100460004FEA1C492343B5FBF9F81FFA8CFE09FB40
:1004700018551C0C44EA054408FB0EF5A54202FA87
:1004800001F200FA01F00BD91CEB040408F1FF3A69
:1004900080F08880A54240F28580A8F1020864447B
:1004A000641B9DB2B4FBF9F309FB134445EA044411
:1004B00003FB0EFEA64508D91CEB040403F1FF352F
:1004C0006CD2A6456AD9023B644443EA0843A3FBC5
:1004D0000295A4EB0E04AC42C846AE4656D353D0A8
:1004E00056B1B0EB080264EB0E0404FA07F7CA40F9
:1004F000CC401743C6E9007418460021BDE8F087D8
:10050000C3F1200102FA03FC20FA01F225FA01F1FD
:100510009D402A434FEA1C471FFA8CFEB1FBF7F0BF
:1005200007FB1015110C41EA054100FB0EF58D4249
:1005300004FA03F408D91CEB010100F1FF382FD2B3
:100540008D422DD902386144491B92B2B1FBF7F5B7
:1005500007FB151142EA014205FB0EF1914208D951
:100560001CEB020205F1FF3816D2914214D9023D6C
:100570006244521A45EA004138E73146304608E7FE
:100580003946E6E61046FBE64845A9D2B9EB020833
:1005900065EB0C0E013BA3E74546EAE72B4694E7E3
:1005A0004046D1E7D0467BE7023D624432E7084649
:1005B0000AE76444023842E7704700BF80B58AB05A
:1005C00000AF786039607B68002B6FD03B68002BF0
:1005D0006CD07B68FB6100237B623749386803F08D
:1005E000A7FF38620EE07B6A9B0028333B443A6ADF
:1005F00043F8202C7B6A01337B622F49002003F0F3
:1006000097FF38623B6A002B02D07B6A042BEADD3D
:100610007B6A002B4CD0BB6828491846FFF7E8FDE1
:100620000346002B07D107F108031A46796AF869D7
:1006300000F050F83DE0BB6821491846FFF7D8FDAF
:100640000346002B07D107F108031A46796AF869B7
:1006500000F0A0F82DE0BB681A491846FFF7C8FD66
:100660000346002B07D107F108031A46796AF86997
:1006700000F0C8F81DE0BB6813491846FFF7B8FD45
:100680000346002B07D107F108031A46796AF86977
:1006900000F0F0F80DE0BB681A460C49F86901F06B
:1006A00013F80B49F86901F00FF802E000BF00E011
:1006B00000BF2837BD4680BD9C5600087C56000808
:1006C000845600088C56000894560008A05600086E
:1006D000C456000880B586B000AFF860B9607A6093
:1006E000BB68032B04DD2149F86800F0EDFF3AE018
:1006F000BB68012B04D11E49F86800F0E5FF32E029
:100700007B685B687B611B497869FFF771FD034675
:10071000002B04D11849F86800F0D6FF23E01749F0
:100720007869FFF765FD0346002B04D11449F8688A
:1007300000F0CAFF17E013497869FFF759FD034637
:10074000002B04D11049F86800F0BEFF0BE00F4900
:100750007869FFF74DFD0346002B04D07A690C49F8
:10076000F86800F0B1FF1837BD4680BDEC560008B0
:100770000459000884560008CC5900088C5600081B
:10078000105A000894560008585A00087C56000871
:100790000457000880B584B000AFF860B9607A6093
:1007A000BB68022B04DD1349F86800F08DFF1DE0E3
:1007B000BB68022B17D17B6804331B680E491846AF
:1007C000FFF716FD0346002B04D10C49F86800F032
:1007D0007BFF0BE07B6804331B681A460849F86806
:1007E00000F072FF02E0F86800F0B6FF1037BD4677
:1007F00080BD00BFEC5600087C560008CC590008AC
:100800002057000880B584B000AFF860B9607A6006
:10081000BB68022B04DD1349F86800F055FF1DE0AA
:10082000BB68022B17D17B6804331B680E4918463E
:10083000FFF7DEFC0346002B04D10C49F86800F0FA
:1008400043FF0BE07B6804331B681A460849F868CD
:1008500000F03AFF02E0F86800F090FF1037BD4664
:1008600080BD00BFEC5600087C560008105A0008F6
:100870004057000880B586B002AFF860B9607A6072
:10088000BB68022B04DD1549F86800F01DFF22E06B
:10089000BB68022B17D17B6804331B6810491846CC
:1008A000FFF7A6FC0346002B04D10E49F86800F0C0
:1008B0000BFF10E07B6804331B681A460A49F8688E
:1008C00000F002FF07E0094B0093002301220849D2
:1008D000F86800F0F9FE1037BD4680BDEC56000800
:1008E0007C560008585A00086057000898570008BE
:1008F0008057000890B5D5B000AF07F5A874A4F5EF
:10090000A274206007F5A870A0F5A470016007F537
:10091000A871A1F5A6710A6007F5A872A2F5A872E0
:10092000136007F5A873A3F5A2731B68002B14D0FE
:1009300007F5A873A3F5A4731B68002B0DD007F56A
:10094000A873A3F5A6731B68002B06D007F5A87340
:10095000A3F5A8731B68002B01D100231AE107F54A
:10096000A873A3F5A2731B68C7F8343107F5A87301
:10097000A3F5A4731868FFF745FCC7F8300107F525
:10098000A873A3F5A47107F5A873A3F5A673D7F808
:1009900030210968186803F0B7FD07F5A873A3F5BF
:1009A000A6731A68D7F83031134400221A7007F181
:1009B00030034FF480720021184603F08BFD07F5D9
:1009C000A873A3F5A47307F13000D7F83021196894
:1009D00003F09AFD07F5A873A3F59072D7F83031AC
:1009E000134400221A700023C7F84C3134E06C4ADB
:1009F000D7F84C3152F82340694AD7F84C3152F8B5
:100A000023301846FFF7FEFB024607F1300321466C
:100A1000184603F067FD0346002B18D1604AD7F84B
:100A20004C3152F8233007F110005E4A202103F0C8
:100A300087FC5D49D7F8340100F046FE07F110034A
:100A40001946D7F83401FFF7B9FD0223A2E0D7F821
:100A50004C310133C7F84C310422D7F84C31934262
:100A6000C5D30023C7F848310023C7F84431002319
:100A7000C7F840311FE04A4AD7F8403152F82310F6
:100A800007F13003D7F83021184603F02BFD034659
:100A9000002B0BD1D7F848310133C7F84831404A11
:100AA000D7F8403152F82330C7F84431D7F84031F5
:100AB0000133C7F840310422D7F840319342DAD3EA
:100AC000D7F84831012B1ED1D7F84401FFF79AFB24
:100AD000024607F5A873A3F5A673D7F84411186862
:100AE00003F012FDD7F84401FFF78CFB024607F52F
:100AF000A873A3F5A6731B68134400221A70012380
:100B000087F83F3144E0D7F84831012B3DD9D7F879
:100B10003031002B01D1254B00E0254B1A462549E9
:100B2000D7F8340100F0D0FD0023C7F838311EE0BB
:100B30001B4AD7F8383152F8231007F13003D7F8A1
:100B40003021184603F0CEFC0346002B0AD1144A8C
:100B5000D7F8383152F823301A461749D7F83401FC
:100B600000F0B2FDD7F838310133C7F8383104222C
:100B7000D7F838319342DBD31049D7F8340100F06D
:100B8000A3FD032387F83F3102E0002387F83F31BC
:100B900097F83F31184607F5AA77BD4690BD00BFCC
:100BA00000000020A4570008AC570008B057000808
:100BB000BC570008C8570008D0570008D457000891
:100BC00080B584B002AF78607B68002B1AD00F49E3
:100BD000786800F079FD0E4A0E49786800F074FDDF
:100BE0000D4B0093002301220C49786800F06CFD46
:100BF0000B4A0C49786800F067FD0B49786800F0F3
:100C000063FD00E000BF0837BD4680BDDC5700082B
:100C1000FC570008105800083458000820580008F5
:100C200040580008505800086058000880B582B04D
:100C300000AF78607B68002B04D00449786800F02E
:100C400043FD00E000BF0837BD4680BD8458000862
:100C500080B584B000AF786039603B68002B62D00B
:100C60003B681B78002B5ED07B68D3F8343C002BAC
:100C70001DDD7B68D3F8303C03F109012D4B83FB6C
:100C800001239A10CB17D21A13469B0013445B0022
:100C9000CA1AFA60FB681B0203F50C737A681344E6
:100CA00039681846FFF7A4FA0346002B3DD07B684D
:100CB000D3F8303C1B0203F50C737A681344FF220F
:100CC0003968184603F020FC7B68D3F8303C7A681A
:100CD0001B02134403F22F3300221A707B68D3F8EF
:100CE000303C591C134B83FB01239A10CB17D21AAB
:100CF00013469B0013445B00CA1A7B68C3F8302C70
:100D00007B68D3F8343C092B06DC7B68D3F8343C91
:100D10005A1C7B68C3F8342C7B68D3F8302C7B6872
:100D2000C3F8382C02E000BF00E000BF1037BD461A
:100D300080BD00BF6766666680B586B000AF78602C
:100D40007B68002B36D000237B6108E07B680122A2
:100D50001A49184600F0E0FD7B6901337B617B682E
:100D6000D3F8403D7A699A42F0D300233B6108E012
:100D70007B6801221249184600F0CEFD3B69013321
:100D80003B617B68D3F83C3D3A699A42F0D300233B
:100D9000FB6008E07B6801220849184600F0BCFDB2
:100DA000FB680133FB607B68D3F83C3DFA689A42EC
:100DB000F0D300E000BF1837BD4680BD9058000852
:100DC0009458000880B584B000AF78607B68002B31
:100DD00022D078687B6803F63C417B68D3F83C3DC1
:100DE0001A4600F099FD7B68D3F83C2D7B68D3F858
:100DF000403DD31ABB600023FB6008E07B68012202
:100E00000749184600F088FDFB680133FB60FA686B
:100E1000BB689A42F2D300E000BF1037BD4680BDE8
:100E20009058000880B584B000AFF860B9601346F0
:100E3000FB80FB68002B3ED0BB68002B3BD0FB88BF
:100E4000002B10D11E49F86800F03EFCF868FFF74F
:100E5000EDFE31E0FB88013BBA68134400221A70B2
:100E6000FB88013BFB80FB88002B14D0FB88013BF7
:100E7000BA6813441B780D2BECD0FB88013BBA6891
:100E800013441B780A2BE5D0FB88013BBA68134456
:100E90001B78202BDED00A49F86800F015FCB968F1
:100EA000F868FFF78BFBB968F868FFF7D1FEF868C0
:100EB000FFF7BCFE00E000BF1037BD4680BD00BF9D
:100EC0009858000880B586B000AF78600B46FB707C
:100ED0007B68002B7CD07B68D3F8402D7B68D3F8EF
:100EE0003C3D9A421CD27B68D3F83C2D7B68D3F8FA
:100EF000403DD31A3B617B68D3F8403D013303F694
:100F000038437A681344181D7B68D3F8403D03F6D4
:100F100038437A68134404333A69194603F0C0FA37
:100F20007B68D3F8403DF9787A6813440A4683F821
:100F30003C2C7B68D3F83C3D5A1C7B68C3F83C2DA5
:100F40007B68D3F83C3D7A681344002283F83C2C3C
:100F50007B68D3F8402D7B68D3F83C3D013B9A4237
:100F600006D17B68F91C0122184600F0D5FC27E069
:100F70007B68D3F83C2D7B68D3F8403DD31AFB60E7
:100F800078687B68D3F8403D03F638437A681344A9
:100F90000433FA68194600F0BFFCFB68013BBB60F4
:100FA00000237B6108E07B6801220B49184600F0B2
:100FB000B3FC7B6901337B617A69BB689A42F2D3E7
:100FC0007B68D3F8403D5A1C7B68C3F8402D00E095
:100FD00000BF1837BD4680BD9058000880B582B06C
:100FE00000AF78607B68002B21D07B68D3F83C3D54
:100FF0007A681344002283F83C2C7B6803F63C415A
:101000007B68D3F83C3D9BB21A467868FFF70AFF2D
:101010007B68D3F8302C7B68C3F8382C7B680022BF
:10102000C3F8402D7B680022C3F83C2D00E000BFD0
:101030000837BD4680BD000080B586B000AF78603F
:101040007B68002B71D07B68D3F8403D002B6CD0BF
:101050007B68D3F83C2D7B68D3F8403DD31A3B61C5
:101060007B68D3F8403D013B03F638437A6813446C
:10107000181D7B68D3F8403D03F638437A68134463
:1010800004333A69194603F00BFA7B68D3F8403D04
:101090005A1E7B68C3F8402D7B68D3F83C3D5A1E2E
:1010A0007B68C3F83C2D7B68D3F83C3D7A681344D9
:1010B000002283F83C2C7B6801221E49184600F070
:1010C0002BFC7B68D3F83C2D7B68D3F8403DD31ACA
:1010D000FB6078687B68D3F8403D03F638437A6854
:1010E00013440433FA68194600F016FC7B680222A8
:1010F0001149184600F010FC7B68D3F83C2D7B6842
:10110000D3F8403DD31ABB6000237B6108E07B68C5
:1011100001220849184600F0FFFB7B6901337B611F
:101120007A69BB689A42F2D300E000BF1837BD4627
:1011300080BD00BF905800089C58000880B582B060
:1011400000AF78607B68002B12D07B68D3F8403DFD
:10115000002B0DD07B68D3F8403D5A1E7B68C3F846
:10116000402D7B6801220449184600F0D5FB00E0C1
:1011700000BF0837BD4680BD9058000880B582B0DA
:1011800000AF78607B68002B1CD07B68D3F8402DC3
:101190007B68D3F83C3D9A4214D278687B68D3F8D8
:1011A000403D03F638437A6813440433012219465C
:1011B00000F0B2FB7B68D3F8403D5A1C7B68C3F853
:1011C000402D00E000BF0837BD4680BD80B584B02B
:1011D00000AF78607B68002B55D07B68D3F8343C37
:1011E000002B50D07B68D3F8383C03F10901294B20
:1011F00083FB01239A10CB17D21A13469B0013448A
:101200005B00CA1AFA607B68D3F8343C092B03DD13
:101210007B68D3F8303C00E00023BB60FA68BB6811
:101220009A4207D17B68D3F8382C7B68D3F8303CDE
:101230009A422AD1FA687B68C3F8382C7868FFF79D
:101240007BFD7B6803F63C407B68D3F8383C1B028F
:1012500003F50C737A681344194603F037FA7B6878
:1012600003F63C431846FEF7CDFF02467B68C3F801
:101270003C2D7B68D3F83C2D7B68C3F8402D786803
:10128000FFF7A0FD02E000BF00E000BF1037BD4641
:1012900080BD00BF6766666680B582B000AF7860CB
:1012A0007B68002B68D07B68D3F8343C002B63D07C
:1012B0007B68D3F8382C7B68D3F8303C9A420FD146
:1012C0007868FFF739FD7B680022C3F83C2D7B6806
:1012D0000022C3F8402D7B68002283F83C2C4CE0B0
:1012E0007B68D3F8383C591C254B83FB01239A10AB
:1012F000CB17D21A13469B0013445B00CA1A7B68B3
:10130000C3F8382C7868FFF717FD7B68D3F8382CC2
:101310007B68D3F8303C9A420CD17B680022C3F83A
:101320003C2D7B680022C3F8402D7B68002283F8A7
:101330003C2C22E07B6803F63C407B68D3F8383CC9
:101340001B0203F50C737A681344194603F0BEF9C7
:101350007B6803F63C431846FEF754FF02467B6861
:10136000C3F83C2D7B68D3F83C2D7B68C3F8402D37
:101370007868FFF727FD00E000BF0837BD4680BD55
:101380006766666680B5C4B000AF07F58873A3F5DD
:101390008673186007F58873A3F586731B68002BA6
:1013A00000F0EF8007F58873A3F586731B68D3F808
:1013B0003C3D07F58872A2F586721268134400223C
:1013C00083F83C2C07F10C034FF48072002118467F
:1013D00003F080F807F58873A3F586731B6803F69E
:1013E0003C4107F58873A3F586731B68D3F83C2D41
:1013F00007F10C03184603F087F807F58873A3F587
:1014000086731B6803F63C4107F10C0207F58873ED
:10141000A3F586704FF480730068FFF76BFA0346FC
:1014200087F80F3197F80F31012B40F0848007F5D2
:101430008873A3F586731868FFF77EFC07F10C0329
:101440001846FEF7DFFE024607F58873A3F586739C
:101450001B68C3F83C2D07F58873A3F586731B68DA
:10146000D3F83C2D07F58873A3F586731B68C3F882
:10147000402D07F58873A3F586731B6803F63C407F
:1014800007F58873A3F586731B68D3F83C2D07F125
:101490000C03194603F038F807F58873A3F5867333
:1014A0001B68D3F83C3DFE2B3DD807F58873A3F5A8
:1014B00086731B68D3F83C3D07F58872A2F58672E7
:1014C00012681344202283F83C2C07F58873A3F597
:1014D00086731B68D3F83C3D5A1C07F58873A3F547
:1014E00086731B68C3F83C2D07F58873A3F58673D4
:1014F0001B68D3F8403D5A1C07F58873A3F5867323
:101500001B68C3F8402D07F58873A3F586731B6825
:10151000D3F83C3D07F58872A2F586721268134431
:10152000002283F83C2C07F58873A3F586731868AE
:10153000FFF748FC26E097F80F31022B0ED107F594
:101540008873A3F586731868FFF770FB07F5887337
:10155000A3F586731868FFF735FC13E097F80F3191
:10156000032B0FD107F58873A3F586731868FFF76F
:101570005DFB07F58873A3F586731868FFF722FCF7
:1015800000E000BF07F58877BD4680BD80B584B018
:1015900000AF78607B68002B00F08D807FE07B6877
:1015A000D3F83C3DFE2B15D9FB7B0D2B12D0FB7BDA
:1015B0007F2B0FD04249786800F086F87B680022C4
:1015C000C3F83C2D7B680022C3F8402D7868FFF7F4
:1015D0002DFB64E03B4B1B78022B3CD0022B5EDCE6
:1015E000002B02D0012B2BD059E0FB7B1B2B03D10E
:1015F000344B01221A7052E0FB7B0D2B03D178682B
:10160000FFF7ECFC4BE0FB7B7F2B02D0FB7B082B36
:1016100003D17868FFF710FD11E0FB7B092B03D1A4
:101620007868FFF7AFFE3AE0FB7B1F2B37D9FB7BD7
:101630007E2B34D8FB7B19467868FFF743FC2EE0FD
:10164000FB7B5B2B03D11F4B02221A7027E01D4B43
:1016500000221A7023E0FB7B413B032B1AD801A226
:1016600052F823F0751600087D160008851600084C
:101670008D1600087868FFF7A9FD0CE07868FFF781
:101680000BFE08E07868FFF779FD04E07868FFF763
:1016900055FD00E000BF0B4B00221A7000BF7B68B5
:1016A00007F10F021146184600F080F90346002B9F
:1016B0007FF475AF00E000BF1037BD4680BD00BFAE
:1016C000A0580008980000200EB480B5C5B000AF47
:1016D00007F58873A3F58673186007F58873A3F57B
:1016E00086731B68002B2ED0D7F81C31002B2AD014
:1016F00007F5907207F58873A3F584731A6007F5F0
:101700008873A3F5847307F10C001B68D7F81C21BC
:101710004FF4807102F0B6FEC7F80C01D7F80C3117
:10172000002B11DDD7F80C31FF2B0DDC07F588738A
:10173000A3F586731B68D7F80C2107F10C01184636
:1017400000F0EAF800E000BF07F58A77BD46BDE883
:10175000804003B07047000080B582B000AF786071
:101760007B68002B04D004497868FFF7ADFF00E0E8
:1017700000BF0837BD4680BDC058000880B584B0A2
:1017800000AF78607B68002B41D07B68D3F8343C95
:10179000002B03D120497868FFF796FF1F4978682E
:1017A000FFF792FF0023FB6025E07B68D3F8302C25
:1017B0007B68D3F8343CD31A1A46FB68134403F110
:1017C0000A02174BA3FB0213D9080B469B000B44DC
:1017D0005B00D31ABB60FB68591CBB681B0203F596
:1017E0000C737A6813440A460E497868FFF76CFF59
:1017F000FB680133FB607B68D3F8343C1A46FB6816
:101800009342D2D308497868FFF75EFF00E000BF3B
:101810001037BD4680BD00BFC8580008E458000816
:10182000CDCCCCCCF85800089858000880B582B0D0
:1018300000AF786039607B68002B02D03B68002BDA
:1018400001D1002319E040F644520021786802F0EB
:1018500041FE7B683968184600F0C0F8034683F003
:101860000103DBB2002B01D0002306E07868FFF70C
:10187000A7F97868FFF7DAF9012318460837BD465B
:1018800080BD80B582B000AF78607B68002B17D038
:101890007B681B68002B13D07B681A1D7B6893F84C
:1018A0002C32DBB21946104600F0EFF87B6818685E
:1018B0007B6803F50B730122194601F071FD00E00E
:1018C00000BF0837BD4680BD80B584B000AF7860EA
:1018D0007B68002B1CD07B681B68002B18D07B68B2
:1018E000183307F10F021146184600F00CF90346B1
:1018F000002B08D07B681B6807F10F0101221846F6
:1019000001F009FD05E07B68002283F82D2200E04C
:1019100000BF1037BD4680BD80B586B000AFF8600F
:10192000B9607A60BB68002B02D07B68002B01D1C4
:10193000002337E000237B610CE0FB6803F1180013
:10194000BA687B6913441B78194600F09EF87B69DE
:1019500001337B617A697B689A42EED3FB6893F826
:101960002D32DBB283F00103DBB2002B19D0FB6810
:10197000183307F113021146184600F0C4F8034665
:10198000002B0CD0FB68012283F82D22FB681B681A
:1019900007F113010122184601F0BDFC01E000230C
:1019A00000E07B6818461837BD4680BD80B582B020
:1019B00000AF786039607B68002B02D03B68002B59
:1019C00001D1002306E07B6804333968184600F033
:1019D0009AF8034618460837BD4680BD80B582B0E8
:1019E00000AF786039603B68002B01D1002329E00B
:1019F0007B683A681A607B68002283F82D227B6836
:101A0000181D7B6803F596734FF48072194600F039
:101A10001DF87B6803F118007B682C334FF480724B
:101A2000194600F013F87B6818687B6803F50B73A0
:101A30000122194601F0B4FC0346002B0CBF012320
:101A40000023DBB218460837BD4680BD80B584B0A0
:101A500000AFF860B9607A60FB68002B05D0BB6806
:101A6000002B02D07B68002B01D1002309E0FB682A
:101A7000BA681A60FB687A68DA60F86800F094F86F
:101A8000034618461037BD4680BD80B483B000AF12
:101A900078600B46FB707B68002B01D100232CE0A3
:101AA0007B681A687B685B681344FA781A707B68F5
:101AB0005B6801337A68D268B3FBF2F101FB02F292
:101AC0009A1A7B685A607B681B7C002B0BD07B6862
:101AD0009B6801337A68D268B3FBF2F101FB02F232
:101AE0009A1A7B689A607B685A687B689B689A42FE
:101AF00002D17B6801221A74012318460C37BD46B7
:101B00005DF8047B704780B582B000AF78603960C3
:101B10007B68002B08D03B68002B05D0786800F06C
:101B200021F80346002B01D0002317E07B681A68D8
:101B30007B689B6813441A783B681A707B689B68C3
:101B400001337A68D268B3FBF2F101FB02F29A1A10
:101B50007B689A607B6800221A7401231846083754
:101B6000BD4680BD80B483B000AF78607B68002B39
:101B700001D1002312E07B681B7C83F00103DBB200
:101B8000002B07D07B685A687B689B689A4201D11A
:101B9000012300E0002303F00103DBB218460C37F9
:101BA000BD465DF8047B704780B483B000AF7860B9
:101BB0007B68002B01D1002309E07B6800225A607A
:101BC0007B6800229A607B6800221A740123184601
:101BD0000C37BD465DF8047B704780B483B000AF1E
:101BE00078607B6818460C37BD465DF8047B70470B
:101BF00080B584B000AFF860B9607A600648FFF73E
:101C0000ECFF7B681A46B968FFF786FE0346184664
:101C10001037BD4680BD00BFE000002080B500AF9A
:101C200000F044FB0246094B1B689A420BD94FF463
:101C30008041074800F0AFFE00F038FB034603F593
:101C4000FA73024A136000BF80BD00BF100000207D
:101C50000018024080B500AF00F0C2FA00F012F8A0
:101C600000F0A6F800F07AF804490548FFF7DEFD19
:101C7000FFF7D4FF0248FFF789FCF9E79C0000203A
:101C8000E000002080B594B000AF07F120033022BF
:101C90000021184602F01EFC07F10C0300221A6016
:101CA0005A609A60DA601A610023BB60294B1B6C92
:101CB000284A43F080531364264B1B6C03F0805377
:101CC000BB60BB6800237B60234B1B6823F440434D
:101CD000214A43F4804313601F4B1B6803F44043C5
:101CE0007B607B6802233B620123FB6210233B6322
:101CF0000223BB630023FB6308233B6440237B6414
:101D00000223BB640423FB6407F12003184600F0A0
:101D10005DFE0346002B01D000F08EF80F23FB6020
:101D200002233B6100237B614FF48053BB614FF47E
:101D30008053FB6107F10C030221184601F0BEF845
:101D40000346002B01D000F077F800BF5037BD46A6
:101D500080BD00BF003802400070004080B500AF79
:101D6000114B124A1A60104B4FF4E1325A600E4B7D
:101D700000229A600C4B0022DA600B4B00221A61A1
:101D8000094B0C225A61084B00229A61064B002233
:101D9000DA61054801F072FA0346002B01D000F029
:101DA0004BF800BF80BD00BF9C0000200010014028
:101DB00080B588B000AF07F10C0300221A605A60AA
:101DC0009A60DA601A610023BB60194B1B6B184ADA
:101DD00043F001031363164B1B6B03F00103BB605D
:101DE000BB6800237B60124B1B6B114A43F040031E
:101DF00013630F4B1B6B03F040037B607B68012276
:101E00004FF4C0410B4800F0ADFD4FF4C043FB6000
:101E100001233B6100237B610023BB6107F10C03BD
:101E20001946044800F0F2FB00BF2037BD4680BDD4
:101E3000003802400018024080B400AF72B600BF04
:101E4000FEE7000080B483B000AF00237B60104B3E
:101E50005B6C0F4A43F4804353640D4B5B6C03F49B
:101E600080437B607B6800233B60094B1B6C084A06
:101E700043F080531364064B1B6C03F080533B60AC
:101E80003B6800BF0C37BD465DF8047B704700BF60
:101E90000038024080B58AB000AF786007F11403C3
:101EA00000221A605A609A60DA601A617B681B68C7
:101EB0001D4A934234D100233B611C4B5B6C1B4A8F
:101EC00043F010035364194B5B6C03F010033B6148
:101ED0003B690023FB60154B1B6B144A43F0010365
:101EE0001363124B1B6B03F00103FB60FB684FF4A1
:101EF000C0637B610223BB610023FB6103233B6260
:101F000007237B6207F114031946094800F07EFBA2
:101F100000220021252000F0B0FA252000F0C9FAA7
:101F200000BF2837BD4680BD001001400038024088
:101F30000000024080B483B000AF78607B68184630
:101F40000C37BD465DF8047B704780B400AFFEE7F8
:101F500080B400AFFEE780B400AFFEE780B400AF0E
:101F6000FEE780B400AFFEE780B400AF00BFBD461F
:101F70005DF8047B704780B400AF00BFBD465DF8DC
:101F8000047B704780B400AF00BFBD465DF8047BA2
:101F9000704780B500AF00F075F900BF80BD00004C
:101FA00080B500AF024801F02BFA00BF80BD00BF32
:101FB0009C00002080B582B000AF78607B681B6811
:101FC000064A934206D10648FFF7B4FF0346184677
:101FD000FFF757FC00BF0837BD4680BD0010014029
:101FE000E000002080B582B000AF78607B681B689D
:101FF000064A934206D10648FFF79CFF034618465F
:10200000FFF762FC00BF0837BD4680BD00100140ED
:10201000E000002080B400AF01231846BD465DF803
:10202000047B704780B582B000AF7860396002F001
:1020300021FB034616221A604FF0FF33184608377B
:10204000BD4680BD80B582B000AF78604FF0FF31F3
:102050007868FFF7E7FFFEE780B586B000AFF8606D
:10206000B9607A6000237B610AE0AFF3008001462B
:10207000BB685A1CBA60CAB21A707B6901337B61B3
:102080007A697B689A42F0DB7B6818461837BD4650
:1020900080BD80B483B000AF78604FF0FF33184646
:1020A0000C37BD465DF8047B704780B483B000AF49
:1020B000786039603B684FF400525A60002318463C
:1020C0000C37BD465DF8047B704780B483B000AF29
:1020D0007860012318460C37BD465DF8047B7047D5
:1020E00080B485B000AFF860B9607A60002318460C
:1020F0001437BD465DF8047B7047000080B586B09C
:1021000000AF7860144A154BD31A7B617B693B6141
:10211000134B1B68002B02D1114B124A1A60104B53
:102120001A687B6813443A699A4207D202F0A2FA0D
:1021300003460C221A604FF0FF3309E0084B1B687E
:10214000FB60074B1A687B681344054A1360FB6801
:1021500018461837BD4680BD00000320000400006B
:10216000240E0020780F002080B400AF064BD3F877
:102170008830054A43F47003C2F8883000BFBD467A
:102180005DF8047B704700BF00ED00E0DFF834D05D
:102190000D480E490E4A002302E0D458C4500433BF
:1021A000C4188C42F9D30B4A0B4C002301E0136096
:1021B0000432A242FBD3FFF7D7FF02F061FAFFF728
:1021C00049FD704700000320000000207C00002033
:1021D000B05B00087C000020780F0020FEE70000C4
:1021E00080B500AF0E4B1B680D4A43F400731360BB
:1021F0000B4B1B680A4A43F480631360084B1B684F
:10220000074A43F480731360032000F02BF90F207A
:1022100000F008F8FFF716FE0023184680BD00BF47
:10222000003C024080B582B000AF7860124B1A6863
:10223000124B1B7819464FF47A73B3FBF1F3B2FBE0
:10224000F3F3184600F043F90346002B01D00123B5
:102250000EE07B680F2B0AD8002279684FF0FF3020
:1022600000F00BF9064A7B681360002300E00123AD
:1022700018460837BD4680BD140000201C00002011
:102280001800002080B400AF064B1B781A46064B9E
:102290001B681344044A136000BFBD465DF8047B0D
:1022A000704700BF1C000020280E002080B400AF43
:1022B000034B1B681846BD465DF8047B704700BFA2
:1022C000280E002080B485B000AF78607B6803F0F2
:1022D0000703FB600C4BDB68BB60BA684FF6FF037B
:1022E0001340BB60FB681A02BB68134343F0BF6333
:1022F00043F40033BB60044ABB68D36000BF1437AB
:10230000BD465DF8047B704700ED00E080B400AF8F
:10231000044BDB681B0A03F007031846BD465DF853
:10232000047B704700ED00E080B483B000AF03464B
:10233000FB7197F90730002B0BDBFB7903F01F02D1
:10234000074997F907305B09012000FA02F241F8CA
:10235000232000BF0C37BD465DF8047B704700BFEB
:1023600000E100E080B483B000AF03463960FB7148
:1023700097F90730002B0ADB3B68DAB20C4997F972
:1023800007301201D2B20B4483F800230AE03B6805
:10239000DAB20849FB7903F00F03043B1201D2B211
:1023A0000B441A7600BF0C37BD465DF8047B7047BE
:1023B00000E100E000ED00E080B489B000AFF8601B
:1023C000B9607A60FB6803F00703FB61FB69C3F146
:1023D0000703042B28BF0423BB61FB690433062BCE
:1023E00002D9FB69033B00E000237B614FF0FF3221
:1023F000BB6902FA03F3DA43BB681A407B699A406F
:102400004FF0FF317B6901FA03F3D9437B680B403E
:10241000134318462437BD465DF8047B704700001F
:1024200080B582B000AF78607B68013BB3F1807FFC
:1024300001D301230FE00A4A7B68013B53600F215F
:102440004FF0FF30FFF78EFF054B00229A60044BE0
:1024500007221A60002318460837BD4680BD00BF1A
:1024600010E000E080B582B000AF78607868FFF7D8
:1024700029FF00BF0837BD4680BD80B586B000AFDC
:102480000346B9607A60FB7300237B61FFF73EFF70
:1024900078617A68B9687869FFF78EFF024697F924
:1024A0000F3011461846FFF75DFF00BF1837BD46D5
:1024B00080BD80B582B000AF0346FB7197F907304D
:1024C0001846FFF731FF00BF0837BD4680BD80B515
:1024D00082B000AF78607868FFF7A2FF0346184625
:1024E0000837BD4680BD80B584B000AF78607B689A
:1024F0009B6DFB60FFF7DAFEB8607B6893F83530C0
:10250000DBB2022B08D07B6880225A657B680022F0
:1025100083F83420012352E07B681B681A687B68CB
:102520001B6822F016021A607B681B685A697B6878
:102530001B6822F080025A617B681B6C002B03D160
:102540007B689B6C002B07D07B681B681A687B68D4
:102550001B6822F008021A607B681B681A687B6897
:102560001B6822F001021A6013E0FFF79FFE02468B
:10257000BB68D31A052B0CD97B6820225A657B686F
:10258000032283F835207B68002283F8342003235C
:1025900015E07B681B681B6803F00103002BE4D186
:1025A0007B68DB6D3F229A40FB689A607B68012262
:1025B00083F835207B68002283F8342000231846F6
:1025C0001037BD4680BD80B483B000AF78607B68B3
:1025D00093F83530DBB2022B04D07B6880225A6539
:1025E00001230CE07B68052283F835207B681B689B
:1025F0001A687B681B6822F001021A6000231846E3
:102600000C37BD465DF8047B7047000080B489B08C
:1026100000AF7860396000237B6100233B610023B9
:10262000BB610023FB6177E10122FB6902FA03F33E
:102630007B613B681B687A6913403B613A697B693F
:102640009A4240F066813B685B6803F00303012B0C
:1026500005D03B685B6803F00303022B30D17B6835
:102660009B68BB61FB695B00032202FA03F3DB4357
:10267000BA691340BB613B68DA68FB695B0002FA28
:1026800003F3BA691343BB617B68BA699A607B68DC
:102690005B68BB610122FB6902FA03F3DB43BA69A1
:1026A0001340BB613B685B681B0903F00102FB69D7
:1026B00002FA03F3BA691343BB617B68BA695A60D3
:1026C0003B685B6803F00303032B17D07B68DB6870
:1026D000BB61FB695B00032202FA03F3DB43BA69C7
:1026E0001340BB613B689A68FB695B0002FA03F325
:1026F000BA691343BB617B68BA69DA603B685B689F
:1027000003F00303022B23D1FB69DA087B6808324C
:1027100053F82230BB61FB6903F007039B000F22D3
:1027200002FA03F3DB43BA691340BB613B681A69E1
:10273000FB6903F007039B0002FA03F3BA69134332
:10274000BB61FB69DA087B680832B96943F822107B
:102750007B681B68BB61FB695B00032202FA03F321
:10276000DB43BA691340BB613B685B6803F003025B
:10277000FB695B0002FA03F3BA691343BB617B6830
:10278000BA691A603B685B6803F44033002B00F0C1
:10279000C0800023FB60664B5B6C654A43F480435A
:1027A0005364634B5B6C03F48043FB60FB68614ADA
:1027B000FB699B08023352F82330BB61FB6903F0CD
:1027C00003039B000F2202FA03F3DB43BA691340B1
:1027D000BB617B68584A934237D07B68574A934223
:1027E00031D07B68564A93422BD07B68554A93423E
:1027F00025D07B68544A93421FD07B68534A93424A
:1028000019D07B68524A934213D07B68514A934255
:102810000DD07B68504A934207D07B684F4A934261
:1028200001D1092312E00A2310E008230EE0072358
:102830000CE006230AE0052308E0042306E0032356
:1028400004E0022302E0012300E00023FA6902F021
:10285000030292009340BA691343BB613549FB6997
:102860009B080233BA6941F823203D4B9B68BB614A
:102870003B69DB43BA691340BB613B685B6803F4A7
:102880008013002B03D0BA693B691343BB61344A00
:10289000BB699360324BDB68BB613B69DB43BA6960
:1028A0001340BB613B685B6803F40013002B03D04B
:1028B000BA693B691343BB61294ABB69D360284BA2
:1028C0005B68BB613B69DB43BA691340BB613B6832
:1028D0005B6803F40033002B03D0BA693B691343F0
:1028E000BB611F4ABB6953601D4B1B68BB613B69E1
:1028F000DB43BA691340BB613B685B6803F4803318
:10290000002B03D0BA693B691343BB61144ABB690E
:102910001360FB690133FB61FB690F2B7FF684AE0B
:1029200000BF00BF2437BD465DF8047B704700BF81
:10293000003802400038014000000240000402401C
:1029400000080240000C0240001002400014024047
:1029500000180240001C02400020024000240240F7
:10296000003C014080B483B000AF78600B467B80B0
:1029700013467B707B78002B03D07A887B689A6142
:1029800003E07B881A047B689A6100BF0C37BD4660
:102990005DF8047B704780B485B000AF78600B466B
:1029A0007B807B685B69FB607A88FB6813401A0454
:1029B000FB68D9437B880B401A437B689A6100BF50
:1029C0001437BD465DF8047B7047000080B586B0C3
:1029D00000AF78607B68002B01D1012367E27B6840
:1029E0001B6803F00103002B75D0884B9B6803F034
:1029F0000C03042B0CD0854B9B6803F00C03082BB5
:102A000012D1824B5B6803F48003B3F5800F0BD1C6
:102A10007E4B1B6803F40033002B5BD07B685B6844
:102A2000002B57D1012342E27B685B68B3F5803FFE
:102A300006D1764B1B68754A43F4803313601DE062
:102A40007B685B68B3F5A02F0CD1704B1B686F4A95
:102A500043F4802313606D4B1B686C4A43F480334E
:102A600013600BE0694B1B68684A23F480331360E2
:102A7000664B1B68654A23F4802313607B685B68A0
:102A8000002B13D0FFF712FC386108E0FFF70EFCB3
:102A900002463B69D31A642B01D9032307E25B4B3F
:102AA0001B6803F40033002BF0D014E0FFF7FEFBAB
:102AB000386108E0FFF7FAFB02463B69D31A642B42
:102AC00001D90323F3E1514B1B6803F40033002BBE
:102AD000F0D100E000BF7B681B6803F00203002B0D
:102AE00063D04A4B9B6803F00C03002B0BD0474B81
:102AF0009B6803F00C03082B1CD1444B5B6803F468
:102B00008003002B16D1414B1B6803F00203002BFE
:102B100005D07B68DB68012B01D00123C7E13B4B6B
:102B20001B6823F0F8027B681B69DB0037491343FD
:102B30000B603AE07B68DB68002B20D0344B01222D
:102B40001A60FFF7B3FB386108E0FFF7AFFB0246FE
:102B50003B69D31A022B01D90323A8E12B4B1B6835
:102B600003F00203002BF0D0284B1B6823F0F8027F
:102B70007B681B69DB00254913430B6015E0244B80
:102B800000221A60FFF792FB386108E0FFF78EFB26
:102B900002463B69D31A022B01D9032387E11B4B61
:102BA0001B6803F00203002BF0D17B681B6803F065
:102BB0000803002B36D07B685B69002B16D0154BC1
:102BC00001221A60FFF772FB386108E0FFF76EFB25
:102BD00002463B69D31A022B01D9032367E10B4B51
:102BE0005B6F03F00203002BF0D01BE0094B0022C7
:102BF0001A60FFF75BFB38610EE0FFF757FB0246F8
:102C00003B69D31A022B07D9032350E10038024055
:102C100000004742800E4742884B5B6F03F002037F
:102C2000002BEAD17B681B6803F00403002B00F043
:102C300097800023FB75814B1B6C03F08053002BA6
:102C40000FD10023BB607D4B1B6C7C4A43F080534B
:102C500013647A4B1B6C03F08053BB60BB68012389
:102C6000FB75774B1B6803F48073002B18D1744BF2
:102C70001B68734A43F480731360FFF717FB3861D6
:102C800008E0FFF713FB02463B69D31A022B01D978
:102C900003230CE16A4B1B6803F48073002BF0D014
:102CA0007B689B68012B06D1644B1B6F634A43F022
:102CB000010313671CE07B689B68052B0CD15F4BFD
:102CC0001B6F5E4A43F0040313675C4B1B6F5B4A48
:102CD00043F0010313670BE0584B1B6F574A23F077
:102CE00001031367554B1B6F544A23F0040313670A
:102CF0007B689B68002B15D0FFF7D8FA38610AE093
:102D0000FFF7D4FA02463B69D31A41F28832934264
:102D100001D90323CBE0494B1B6F03F00203002BC7
:102D2000EED014E0FFF7C2FA38610AE0FFF7BEFA0E
:102D300002463B69D31A41F28832934201D90323F8
:102D4000B5E03E4B1B6F03F00203002BEED1FB7D81
:102D5000012B05D1394B1B6C384A23F08053136487
:102D60007B689B69002B00F0A180344B9B6803F0CB
:102D70000C03082B5CD07B689B69022B41D1314B43
:102D800000221A60FFF792FA386108E0FFF78EFA26
:102D900002463B69D31A022B01D9032387E0274B54
:102DA0001B6803F00073002BF0D17B68DA697B6845
:102DB0001B6A1A437B685B6A9B011A437B689B6AA8
:102DC0005B08013B1B041A437B68DB6A1B061B493B
:102DD00013434B601B4B01221A60FFF767FA3861FF
:102DE00008E0FFF763FA02463B69D31A022B01D9C8
:102DF00003235CE0114B1B6803F00073002BF0D041
:102E000054E0104B00221A60FFF750FA386108E0D6
:102E1000FFF74CFA02463B69D31A022B01D9032370
:102E200045E0064B1B6803F00073002BF0D13DE03A
:102E30007B689B69012B07D1012338E000380240F1
:102E400000700040600047421B4B5B68FB607B6882
:102E50009B69012B28D0FB6803F480027B68DB6947
:102E60009A4221D1FB6803F03F027B681B6A9A42B9
:102E70001AD1FA6847F6C07313407A68526A920111
:102E8000934211D1FB6803F440327B689B6A5B0874
:102E9000013B1B049A4207D1FB6803F070627B6818
:102EA000DB6A1B069A4201D0012300E0002318468A
:102EB0001837BD4680BD00BF0038024080B584B0E1
:102EC00000AF786039607B68002B01D10123CCE032
:102ED000684B1B6803F00F033A689A420CD9654BA4
:102EE0003A68D2B21A70634B1B6803F00F033A685A
:102EF0009A4201D00123B8E07B681B6803F002030B
:102F0000002B20D07B681B6803F00403002B05D046
:102F1000594B9B68584A43F4E05393607B681B68A5
:102F200003F00803002B05D0534B9B68524A43F42F
:102F300060439360504B9B6823F0F0027B689B6872
:102F40004D4913438B607B681B6803F00103002B22
:102F500044D07B685B68012B07D1474B1B6803F4A7
:102F60000033002B19D101237FE07B685B68022BC3
:102F700003D07B685B68032B07D13F4B1B6803F0D2
:102F80000073002B09D101236FE03B4B1B6803F05A
:102F90000203002B01D1012367E0374B9B6823F02C
:102FA00003027B685B68344913438B60FFF77EF94B
:102FB000F8600AE0FFF77AF90246FB68D31A41F29B
:102FC0008832934201D903234FE02B4B9B6803F0D7
:102FD0000C027B685B689B009A42EBD1254B1B6817
:102FE00003F00F033A689A420CD2224B3A68D2B2ED
:102FF0001A70204B1B6803F00F033A689A4201D005
:10300000012332E07B681B6803F00403002B08D027
:10301000194B9B6823F4E0527B68DB681649134325
:103020008B607B681B6803F00803002B09D0124BF0
:103030009B6823F460427B681B69DB000E491343E5
:103040008B6000F021F802460B4B9B681B0903F0D4
:103050000F030A49CB5C22FA03F3094A1360094BB8
:103060001B681846FFF7DEF8002318461037BD46E8
:1030700080BD00BF003C024000380240A85A000852
:1030800014000020180000202DE9B04F90B000AFD0
:1030900000237B630023FB6300233B630023BB63AC
:1030A000594B9B6803F00C03082B0DD0082B00F242
:1030B000A180002B02D0042B03D09BE0534BBB63B9
:1030C0009BE0534BBB6398E04F4B5B6803F03F03BF
:1030D0007B634D4B5B6803F48003002B28D04A4B85
:1030E0005B689B0900223B627A623B6AC3F308007B
:1030F0000021474B03FB01F2002300FB03F31344C1
:10310000434AA0FB0212FA620A46BA62FA6A134400
:10311000FB627B6B0022BB61FA61D7E90623D7E92A
:103120000A01FDF7CDF802460B461346FB6353E058
:10313000354B5B689B0900223B617A613B69C3F3B5
:10314000080A4FF0000B52465B464FF000004FF06C
:103150000001590141EAD261500102460B46B2EB2F
:103160000A0863EB0B094FF000024FF000034FEA2F
:10317000891343EA98634FEA8812B2EB080463EBC1
:1031800009054FF000024FF00003EB0043EA5473CF
:10319000E20014461D4614EB0A033B6045EB0B03AB
:1031A0007B604FF000024FF00003D7E9004529464D
:1031B0008B02214643EA915321468A021046194662
:1031C0007B6B0022BB60FA60D7E90223FDF778F839
:1031D00002460B461346FB630B4B5B681B0C03F06C
:1031E000030301335B003B63FA6B3B6BB2FBF3F30E
:1031F000BB6302E0054BBB6300BFBB6B18464037A7
:10320000BD46BDE8B08F00BF003802400024F40086
:1032100040787D0180B400AF034B1B681846BD4663
:103220005DF8047B704700BF1400002080B500AF3C
:10323000FFF7F0FF0246054B9B689B0A03F007036C
:103240000349CB5C22FA03F3184680BD00380240E4
:10325000B85A000880B500AFFFF7DCFF0246054B07
:103260009B685B0B03F007030349CB5C22FA03F373
:10327000184680BD00380240B85A000880B582B0B8
:1032800000AF78607B68002B01D101233FE07B68B1
:1032900093F83D30DBB2002B06D17B68002283F827
:1032A0003C207868FEF7F6FD7B68242283F83D20F9
:1032B0007B681B68DA687B681B6822F40052DA605E
:1032C000786800F019FD7B681B681A697B681B68C9
:1032D00022F490421A617B681B685A697B681B68FC
:1032E00022F02A025A617B681B68DA687B681B68D7
:1032F00042F40052DA607B6800221A647B68202264
:1033000083F83D207B68202283F83E200023184666
:103310000837BD4680BD80B485B000AFF860B960A5
:103320001346FB80FB6893F83D30DBB2202B30D195
:10333000BB68002B02D0FB88002B01D1012329E0C0
:10334000FB6893F83C30012B01D1022322E0FB689B
:10335000012283F83C20FB68BA681A62FB68FA888D
:103360009A84FB68FA88DA84FB6800221A64FB6896
:10337000212283F83D20FB68002283F83C20FB6873
:103380001B68DA68FB681B6842F08002DA60002381
:1033900000E0022318461437BD465DF8047B7047F1
:1033A00080B584B000AFF860B9601346FB80FB685D
:1033B00093F83E30DBB2202B1DD1BB68002B02D02E
:1033C000FB88002B01D1012316E0FB6893F83C3009
:1033D000012B01D102230FE0FB68012283F83C207E
:1033E000FB6800221A63FB881A46B968F86800F087
:1033F000ABFA034600E0022318461037BD4680BDF5
:1034000080B5BAB000AF78607B681B681B68C7F8EE
:10341000E4307B681B68DB68C7F8E0307B681B68BA
:103420005B69C7F8DC300023C7F8D8300023C7F841
:10343000D430D7F8E43003F00F03C7F8D830D7F80A
:10344000D830002B0FD1D7F8E43003F02003002B45
:1034500009D0D7F8E03003F02003002B03D07868C0
:1034600000F08FFB56E2D7F8D830002B00F0DE805A
:10347000D7F8DC3003F00103002B06D1D7F8E03099
:1034800003F49073002B00F0D180D7F8E43003F000
:103490000103002B0BD0D7F8E03003F48073002B2E
:1034A00005D07B681B6C43F001027B681A64D7F877
:1034B000E43003F00403002B0BD0D7F8DC3003F02A
:1034C0000103002B05D07B681B6C43F002027B6874
:1034D0001A64D7F8E43003F00203002B0BD0D7F8BE
:1034E000DC3003F00103002B05D07B681B6C43F03C
:1034F00004027B681A64D7F8E43003F00803002B59
:1035000011D0D7F8E03003F02003002B05D1D7F815
:10351000DC3003F00103002B05D07B681B6C43F00B
:1035200008027B681A647B681B6C002B00F0ED813D
:10353000D7F8E43003F02003002B08D0D7F8E030B0
:1035400003F02003002B02D0786800F01AFB7B68A0
:103550001B685B6903F04003402B0CBF0123002371
:10356000DBB2C7F8D4307B681B6C03F00803002B78
:1035700003D1D7F8D430002B4FD0786800F022FA6E
:103580007B681B685B6903F04003402B41D17B687B
:103590001B681433C7F89C30D7F89C3053E8003FC1
:1035A000C7F89830D7F8983023F04003C7F8D030E8
:1035B0007B681B681433D7F8D020C7F8A820C7F859
:1035C000A430D7F8A410D7F8A82041E80023C7F802
:1035D000A030D7F8A030002BD9D17B689B6B002B93
:1035E00013D07B689B6B7D4A1A657B689B6B184682
:1035F000FEF7E9FF0346002B16D07B689B6B1B6D23
:103600007A68926B104698470EE0786800F086F969
:103610000AE0786800F082F906E0786800F07EF948
:103620007B6800221A6470E100BF6EE17B681B6B4F
:10363000012B40F04A81D7F8E43003F01003002B4F
:1036400000F04381D7F8E03003F01003002B00F0C6
:103650003C810023BB607B681B681B68BB607B6888
:103660001B685B68BB60BB687B681B685B6903F0B9
:103670004003402B40F0B4807B689B6B1B685B6809
:10368000A7F8BE30B7F8BE30002B00F040817B6851
:103690009B8DB7F8BE209A4280F039817B68B7F8DD
:1036A000BE20DA857B689B6BDB69B3F5807F00F019
:1036B00088807B681B680C33C7F88830D7F888305F
:1036C00053E8003FC7F88430D7F8843023F4807380
:1036D000C7F8B8307B681B680C33D7F8B820C7F838
:1036E0009420C7F89030D7F89010D7F8942041E88C
:1036F0000023C7F88C30D7F88C30002BD9D17B68E9
:103700001B6814337B677B6F53E8003F3B673B6F5D
:1037100023F00103C7F8B4307B681B681433D7F873
:10372000B420C7F88020FB67F96FD7F8802041E804
:103730000023BB67BB6F002BE1D17B681B68143390
:103740003B663B6E53E8003FFB65FB6D23F0400397
:10375000C7F8B0307B681B681433D7F8B020FA661E
:10376000BB66B96EFA6E41E800237B667B6E002B68
:10377000E3D17B68202283F83E207B6800221A6315
:103780007B681B680C33FB64FB6C53E8003FBB6435
:10379000BB6C23F01003C7F8AC307B681B680C339C
:1037A000D7F8AC20BA657B65796DBA6D41E8002326
:1037B0003B653B6D002BE3D17B689B6B1846FEF7A6
:1037C00092FE7B689A8D7B68DB8D9BB2D31A9BB28D
:1037D0001946786800F0ACF899E000BF8B3A000811
:1037E0007B689A8D7B68DB8D9BB2D31AA7F8CE30AD
:1037F0007B68DB8D9BB2002B00F08B80B7F8CE305E
:10380000002B00F086807B681B680C33BB63BB6BAE
:1038100053E8003F7B637B6B23F49073C7F8C83099
:103820007B681B680C33D7F8C8207A643B64396C1A
:103830007A6C41E80023FB63FB6B002BE3D17B68D0
:103840001B6814337B627B6A53E8003F3B623B6A30
:1038500023F00103C7F8C4307B681B681433D7F822
:10386000C4203A63FB62F96A3A6B41E80023BB6209
:10387000BB6A002BE3D17B68202283F83E207B6863
:1038800000221A637B681B680C333B613B6953E879
:10389000003FFB60FB6823F01003C7F8C0307B6873
:1038A0001B680C33D7F8C020FA61BB61B969FA69AB
:1038B00041E800237B617B69002BE3D1B7F8CE3070
:1038C0001946786800F034F823E0D7F8E43003F0C4
:1038D0008003002B09D0D7F8E03003F08003002BE1
:1038E00003D0786800F0E5F814E0D7F8E43003F08E
:1038F0004003002B0ED0D7F8E03003F04003002B3C
:1039000008D0786800F025F904E000BF02E000BFAD
:1039100000E000BFE837BD4680BD00BF80B483B083
:1039200000AF786000BF0C37BD465DF8047B704780
:1039300080B483B000AF78600B467B8000BF0C374B
:10394000BD465DF8047B704780B485B000AFF86079
:10395000B9601346FB80FB68BA689A62FB68FA8814
:103960009A85FB68FA88DA85FB6800221A64FB688E
:10397000222283F83E20FB68002283F83C20FB686B
:103980001B69002B07D0FB681B68DA68FB681B68A3
:1039900042F48072DA60FB681B685A69FB681B6836
:1039A00042F001025A61FB681B68DA68FB681B6819
:1039B00042F02002DA60002318461437BD465DF855
:1039C000047B704780B495B000AF78607B681B685B
:1039D0000C337B637B6B53E8003F3B633B6B23F40F
:1039E0009073FB647B681B680C33FA6C3A64FB636E
:1039F000F96B3A6C41E80023BB63BB6B002BE5D14C
:103A00007B681B6814333B623B6A53E8003FFB61F1
:103A1000FB6923F00103BB647B681B681433BA6C39
:103A2000FA62BB62B96AFA6A41E800237B627B6A88
:103A3000002BE5D17B681B6B012B19D17B681B68C0
:103A40000C33FB60FB6853E8003FBB60BB6823F0AE
:103A500010037B647B681B680C337A6CBA617B61F2
:103A60007969BA6941E800233B613B69002BE5D1E4
:103A70007B68202283F83E207B6800221A6300BF07
:103A80005437BD465DF8047B704780B584B000AF05
:103A900078607B689B6BFB60FB680022DA85FB68C3
:103AA0000022DA84F868FFF739FF00BF1037BD46FF
:103AB00080BD80B485B000AF78607B6893F83D30FE
:103AC000DBB2212B3ED17B689B68B3F5805F14D1BC
:103AD0007B681B69002B10D17B681B6AFB60FB684D
:103AE0001B881A467B681B68C2F308025A607B6811
:103AF0001B6A9A1C7B681A6208E07B681B6A591C67
:103B00007A6811621A787B681B685A607B68DB8C64
:103B10009BB2013B9BB27A681946D184002B0FD12E
:103B20007B681B68DA687B681B6822F08002DA60B9
:103B30007B681B68DA687B681B6842F04002DA60C9
:103B4000002300E0022318461437BD465DF8047BCD
:103B5000704780B582B000AF78607B681B68DA6818
:103B60007B681B6822F04002DA607B68202283F8C1
:103B70003D207868FEF736FA002318460837BD4620
:103B800080BD80B58CB000AF78607B6893F83E3024
:103B9000DBB2222B40F0AB807B689B68B3F5805F83
:103BA00017D17B681B69002B13D10023FB627B6854
:103BB0009B6ABB627B681B685B689BB2C3F30803AC
:103BC0009AB2BB6A1A807B689B6A9A1C7B689A626D
:103BD00026E07B689B6AFB620023BB627B689B6874
:103BE000B3F5805F07D07B689B68002B0AD17B68A8
:103BF0001B69002B06D17B681B685B68DAB2FB6A25
:103C00001A7008E07B681B685B68DBB203F07F0317
:103C1000DAB2FB6A1A707B689B6A5A1C7B689A62EC
:103C20007B68DB8D9BB2013B9BB27A681946D185DC
:103C3000002B5AD17B681B68DA687B681B6822F00E
:103C40002002DA607B681B68DA687B681B6822F4F4
:103C50008072DA607B681B685A697B681B6822F097
:103C600001025A617B68202283F83E207B681B6B2F
:103C7000012B35D17B6800221A637B681B680C33EB
:103C80007B617B6953E8003F3B613B6923F0100394
:103C90007B627B681B680C337A6A3A62FB61F96964
:103CA0003A6A41E80023BB61BB69002BE5D17B6820
:103CB0001B681B6803F01003102B0AD10023FB6064
:103CC0007B681B681B68FB607B681B685B68FB602C
:103CD000FB687B689B8D19467868FFF729FE02E038
:103CE0007868FEF767F9002302E0002300E0022372
:103CF00018463037BD4680BD2DE9B04FC0B000AF8B
:103D0000C7F8F400D7F8F4301B681B6923F440505F
:103D1000D7F8F430D968D7F8F4301A6840EA0103CC
:103D20001361D7F8F4309A68D7F8F4301B691A4356
:103D3000D7F8F4305B691A43D7F8F430DB691343E2
:103D4000C7F8F830D7F8F4301B68DB6823F4164165
:103D500021F00C01D7F8F4301A68D7F8F8300B438B
:103D6000D360D7F8F4301B685B6923F44070D7F850
:103D7000F4309969D7F8F4301A6840EA01035361C6
:103D8000D7F8F4301A688F4B9A4205D0D7F8F43040
:103D90001A688D4B9A4204D1FFF75CFAC7F8FC0011
:103DA00003E0FFF743FAC7F8FC00D7F8F430DB690B
:103DB000B3F5004F40F00C81D7F8FC300022C7F873
:103DC000E830C7F8EC20D7E93A4522462B4691184F
:103DD000B9655B41FB65D7E91623214612EB010863
:103DE000294643EB01094FF000024FF000034FEA70
:103DF000C90343EA58734FEAC802904699462346DE
:103E000018EB0303C7F8E0302B4649EB0303C7F870
:103E1000E430D7F8F4305B680022C7F8D830C7F830
:103E2000DC20D7E936120B46DB183B65134642EB24
:103E300003037B65D7E91423D7E93801FCF740FA7F
:103E400002460B46614BA3FB02235B091C01D7F81A
:103E5000FC300022C7F8D030C7F8D420D7E9348925
:103E600042464B469118B9645B41FB64D7E9122383
:103E7000414612EB010A494643EB010B4FF00002A9
:103E80004FF000034FEACB0343EA5A734FEACA02EA
:103E900092469B4643461AEB0303C7F8C8304B468D
:103EA0004BEB0303C7F8CC30D7F8F4305B68002243
:103EB000C7F8C030C7F8C420D7E930120B46DB186A
:103EC0003B64134642EB03037B64D7E91023D7E935
:103ED0003201FCF7F5F902460B4611463B4BA3FBBA
:103EE00001235B09642202FB03F3CB1ADB0003F11D
:103EF0003202364BA3FB02235B095B0003F4F87329
:103F00001C44D7F8FC300022C7F8B830C7F8BC20F2
:103F1000D7E92E8942464B469118B9635B41FB6352
:103F2000D7E90E2341465118396349464B417B631B
:103F30004FF000024FF00003D7E90CAB5946CB001D
:103F4000514643EA51735146CA001046194603468A
:103F500042469B18C7F8B0304B460A4642EB030373
:103F6000C7F8B430D7F8F4305B680022C7F8A8303F
:103F7000C7F8AC20D7E92A120B46DB18BB62134600
:103F800042EB0303FB62D7E90A23D7E92C01FCF7D4
:103F900097F902460B460D4BA3FB02135B09642104
:103FA00001FB03F3D31ADB003233084AA2FB0323DD
:103FB0005B0903F00702D7F8F4301B6822449A60CB
:103FC00006E100BF00100140001401401F85EB51C5
:103FD000D7F8FC300022C7F8A030C7F8A420D7E9F2
:103FE000288942464B46911839625B417B62D7E98A
:103FF000082341465418494643EB01054FF000029F
:104000004FF00003EB0043EA5473E20014461D46F0
:104010004346E318C7F898304B4645EB0303C7F80F
:104020009C30D7F8F4305B680022C7F89030C7F8AE
:1040300094204FF000024FF00003D7E924452946B1
:104040008B00214643EA917321468A00D7E9260175
:10405000FCF736F902460B46604BA3FB02235B09D3
:104060001C01D7F8FC300022C7F88830C7F88C2034
:10407000D7E9228942464B469118B9615B41FB6101
:10408000D7E9062341465118396149464B417B61C6
:104090004FF000024FF00003D7E904AB5946CB00C4
:1040A000514643EA51735146CA0010461946034629
:1040B00042469B18C7F880304B460A4642EB030342
:1040C000C7F88430D7F8F4305B680022BB67FA6722
:1040D0004FF000024FF00003D7E91E8949468B00DC
:1040E000414643EA917341468A00D7E92001FCF733
:1040F000E7F802460B461146384BA3FB01235B0948
:10410000642202FB03F3CB1A1B013233334AA2FBB6
:1041100003235B0903F0F0031C44D7F8FC300022B2
:104120003B677A67D7E91C8942464B469118B960CC
:104130005B41FB60D7E9022341465118396049468B
:104140004B417B604FF000024FF00003D7E900AB1A
:104150005946CB00514643EA51735146CA001046B6
:104160001946034642469B18BB664B460A4642EB3D
:104170000303FB66D7F8F4305B6800223B667A667F
:104180004FF000024FF00003D7E9188949468B0031
:10419000414643EA917341468A00D7E91A01FCF788
:1041A0008FF802460B460D4BA3FB02135B096421FB
:1041B00001FB03F3D31A1B013233084AA2FB03238A
:1041C0005B0903F00F02D7F8F4301B6822449A60B1
:1041D00000BF07F58077BD46BDE8B08F1F85EB5166
:1041E000002310B50446C0E90033C0E904338360FE
:1041F00081814366C2818361194608225C3000F0E8
:1042000069F9054B6362054BA362054BE362054BFD
:104210002462236310BD00BFA9430008CB430008FC
:104220000344000827440008024A0349034800F0F9
:1042300069B800BF20000020F54F00082C000020C6
:1042400041680C4B994210B5044601D000F0D2FEF3
:10425000A168094B994202D0204600F0CBFEE168EC
:10426000064B994204D02046BDE8104000F0C2BE83
:1042700010BD00BF2C0E0020940E0020FC0E00206C
:1042800010B50B4B0B4C0C4A1A602046002204213F
:10429000FFF7A6FF04F1680001220921FFF7A0FF44
:1042A00004F1D0000222BDE810401221FFF798BFB0
:1042B000640F00202C0E002029420008014800F065
:1042C00003BA00BF6D0F0020014800F0FEB900BF27
:1042D0006D0F002010B50446FFF7F0FF236A1BB1F5
:1042E000BDE81040FFF7F0BF044B2362044B1B688E
:1042F000002BF5D1FFF7C4FFF2E700BF41420008F1
:10430000640F00202DE9F84307468846144600262E
:10431000D4E90195B9F1010905D52468002CF7D13C
:104320003046BDE8F883AB89012B07D9B5F90E30CB
:10433000013303D029463846C04706436835E9E7CC
:104340000CB430B5174B0C1E1D689DB008DA8B23DA
:104350002B604FF0FF301DB0BDE8304002B0704719
:104360004FF40273ADF8143014BF04F1FF33234649
:10437000049307934FF6FF7302900690ADF8163042
:10438000209A21AB02A92846019300F01FFB431C91
:10439000BCBF8B232B60002CDDD0029B00221A7047
:1043A000D9E700BF7800002010B50C46B1F90E1017
:1043B00000F03CF90028ABBF636DA3891B1823F400
:1043C0008053ACBF6365A38110BD2DE9F0411F464A
:1043D0008B89DB0505460C46164605D5B1F90E104E
:1043E0000223002200F010F9A389B4F90E1023F47F
:1043F0008053A38132463B462846BDE8F04100F099
:1044000027B910B50C46B1F90E1000F0FDF8431CA9
:10441000A38915BF606523F4805343F48053A381BF
:1044200018BFA38110BDB1F90E1000F0DDB830B592
:104430001446002C9BB005461A4605DA8B23036010
:104440004FF0FF301BB030BD4FF40273ADF80C30AD
:1044500014BF04F1FF332346029305934FF6FF7315
:1044600000910491ADF80E3069461E9B00F0AEFA43
:10447000431CBCBF8B232B60002CE3D0009B00228D
:104480001A70DFE707B5009313460A460146034852
:104490000068FFF7CCFF03B05DF804FB7800002054
:1044A000884210B501EB020402D98442234607D8A2
:1044B000431EA14208D011F8012B03F8012FF8E7A1
:1044C000024401468A4200D110BD13F8014D02F8A2
:1044D000014DF7E702440346934200D1704703F8C9
:1044E000011BF9E710B56AB10139841810F8012BE6
:1044F00011F8013F9A4203D1A04201D0002AF5D120
:10450000D01A10BD1046FCE710B50139034632B190
:1045100011F8014F03F8014B013A002CF7D11A446E
:104520000021934200D110BD03F8011BF9E7000000
:10453000164B73B51E68746C0546FCB9502001918A
:1045400000F036F901997064024620B9104B114809
:104550005B2100F0C3F8C0E90044C0E90244C0E9AF
:104560000444C0E90A44C0E90C44C0E90E44C0E96F
:104570001044C0E91244846104774462726C0123E0
:10458000284602B0BDE8704000F006B87800002070
:10459000C05A0008D75A0008F0B508B9106888B1A9
:1045A0000446204614F8015B0F4617F8016B1EB94C
:1045B00065B91560284605E0B542F6D1002BF0D16B
:1045C00014600370F0BD1C460CE015B914F8013BF3
:1045D0000E4616F8015BAB42F7D1002BF3D0002357
:1045E00004F8013C1460EDE738B5064D002304469D
:1045F00008462B60FDF74DFD431C02D12B6803B12B
:10460000236038BD680F002038B5074D04460846C2
:10461000114600222A601A46FDF762FD431C02D1B2
:104620002B6803B1236038BD680F002038B5074DF3
:1046300004460846114600222A601A46FDF70CFD82
:10464000431C02D12B6803B1236038BD680F0020E2
:1046500038B5074D04460846114600222A601A461E
:10466000FDF7C6FA431C02D12B6803B1236038BDA5
:10467000680F0020014B1868704700BF78000020C9
:1046800070B50D4D0D4C641BA4100026A64209D137
:104690000B4D0C4C00F0E6FF641BA4100026A64254
:1046A00005D170BD55F8043B98470136EEE755F843
:1046B000043B98470136F2E7A85B0008A85B0008B6
:1046C000A85B0008AC5B000870477047034611F810
:1046D000012B03F8012B002AF9D170471FB51446AE
:1046E0001A46094B1B680546D8684CB1074B009128
:1046F000CDE9013406492B4600F0A4FC00F0D2FCC1
:10470000044B1C46F3E700BF78000020315B000833
:104710003E5B00086C5B000837B5002944D051F8B7
:10472000043C0190002BA1F10404B8BFE41800F090
:10473000E7F81E4A0198136833B96360146003B048
:10474000BDE8304000F0E2B8A34208D925686119FD
:104750008B4201BF19685B6849192160EDE71A4671
:104760005B680BB1A342FAD911685518A5420BD169
:10477000246821445418A3421160E0D11C685B688E
:1047800053600C441460DAE702D90C230360D6E7C7
:10479000256861198B4204BF19685B68636004BFB8
:1047A000491921605460CAE703B030BD700F002082
:1047B000024B0146186800F023B800BF78000020C3
:1047C00070B50E4E0C463168054611B900F04CFC30
:1047D00030602146284600F047FC431C0AD0C41C28
:1047E00024F00304A04207D0211A284600F03CFC24
:1047F000013001D14FF0FF34204670BD740F00200E
:104800002DE9F843CD1C25F0030508350C2D38BFE4
:104810000C25002D074601DBA94205D90C233B607E
:1048200000263046BDE8F883DFF8D08000F068F855
:10483000D8F800301C465CBB29463846FFF7C0FF5D
:10484000431C044655D1D8F800402646002E45D1D9
:10485000002C48D023683146384604EB030900F0A9
:1048600003FC81453FD121686D1A29463846FFF780
:10487000A7FF013037D023682B442360D8F80030DD
:10488000002B38D05A68A2422BD100225A600FE088
:104890002268521B1FD40B2A17D96119A342256025
:1048A00018BF5960636808BFC8F8001062514B60B8
:1048B000384604F10B0600F029F826F00706231D00
:1048C000F21AAED09B1BA350ABE7A3426268DDD1C6
:1048D000C8F80020ECE723466468ACE73446766805
:1048E000B4E71346CCE70C233B60384600F00EF8E3
:1048F00097E72560DCE75B60FFDE00BF700F0020FC
:104900000148FFF7E1BE00BF6C0F00200148FFF730
:10491000DCBE00BF6C0F00202DE9F0478E681F46FB
:10492000BE420B6882460C4690462CD88A8912F407
:10493000906F26D06569096905EB4505A3EB010970
:1049400005EBD5757B1C4B446D109D4238BF1D4651
:10495000530527D52946FFF753FF064660B3216963
:104960004A4600F091FBA38923F4906343F080034F
:10497000A381266165614E44A5EB09052660A5600B
:104980003E46BE4200D93E46206832464146FFF7C9
:1049900087FDA3689B1BA36023683344236000202A
:1049A000BDE8F0872A4600F084FB06460028E0D1E7
:1049B00021695046FFF7B0FE0C23CAF80030A389E6
:1049C00043F04003A3814FF0FF30E9E72DE9F04FBA
:1049D00098468B891B069DB007460D4614460ED59A
:1049E0000B6963B94021FFF70BFF2860286120B9EC
:1049F0000C233B604FF0FF30D0E040236B6100237D
:104A0000099320238DF82930CDF80C803023DFF86E
:104A1000A4818DF82A304FF0010923469A4613F8F5
:104A2000012B0AB1252AF9D1BAEB040B0BD05B4656
:104A3000224629463846FFF76FFF013000F0A98073
:104A4000099A5A4409929AF80030002B00F0A1808C
:104A500000234FF0FF32CDE905230AF1010A049348
:104A600007938DF853301A935446052214F8011B0E
:104A70005048FBF7D5FB049AD8B9D00644BF202391
:104A80008DF85330110744BF2B238DF853309AF81B
:104A900000302A2B15D0079A544600204FF00A0CFC
:104AA000214611F8013B303B092B4DD9B0B107929B
:104AB00014E0A0EB080309FA03F313430493A2469E
:104AC000D2E7039B191D1B680391002BBBBF5B4200
:104AD00042F0020207930793B8BF049223782E2B6B
:104AE0000CD163782A2B34D1039B1A1D1B680392C7
:104AF000002BB8BF4FF0FF3302340593DFF8C4A09A
:104B0000217803225046FBF78BFB38B1049BA0EBC6
:104B10000A004022824013430134049314F8011B1D
:104B200025488DF828100622FBF77AFB002838D09C
:104B3000224B1BBB039B073323F00703083303936C
:104B4000099B3344099368E70CFB02320C460120B1
:104B5000A6E700230134059319464FF00A0C2046BE
:104B600010F8012B303A092A03D9002BC6D0059141
:104B7000C4E70CFB012104460123F0E703AB0093DB
:104B80002A460F4B04A93846AFF30080421C064664
:104B9000D6D1AB895B063FF52DAF09981DB0BDE8B6
:104BA000F08F03AB00932A46054B04A9384600F06A
:104BB00079F8EBE76D5B0008775B00080000000008
:104BC00019490008735B00082DE9F047164699461D
:104BD0008A680B69DDF820809342B8BF13463360C2
:104BE00091F8432007460C460AB10133336023682D
:104BF000990642BF336802333360256815F0060515
:104C000006D104F1190AE36832689B1AAB4226DC2C
:104C100094F84320131E226818BF012392062BD458
:104C200004F1430249463846C04701301ED023688C
:104C3000226903F00603042B02BFE5683368ED1A0E
:104C4000A3680CBF25EAE57500259342C4BF9B1AF3
:104C5000ED1800261A34B5421AD1002008E00123CD
:104C6000524649463846C047013003D14FF0FF3025
:104C7000BDE8F0870135C6E7E1185A1C302081F8FD
:104C80004300224494F8451082F843100233C7E7EA
:104C90000123224649463846C0470130E6D0013656
:104CA000D9E700002DE9FF470F7E0C9D782F914634
:104CB00080460C469A4601F1430207D8622F0AD873
:104CC000002F00F0D480582F00F0C08004F142057E
:104CD00084F842703AE0A7F16303152BF6D801A1DE
:104CE00051F823F03D4D0008514D0008CD4C00080F
:104CF000CD4C0008CD4C0008CD4C0008514D0008AB
:104D0000CD4C0008CD4C0008CD4C0008CD4C00081F
:104D1000554E00087D4D00080F4E0008CD4C000890
:104D2000CD4C0008774E0008CD4C00087D4D0008A2
:104D3000CD4C0008CD4C0008174E00082B681A1DFA
:104D40001B682A6004F1420584F8423001239FE089
:104D500020682B68070603F10401296001D51E684D
:104D600003E04606FBD5B3F90060002E03DA2D23DD
:104D7000764284F843305A480A2312E02B682068B0
:104D8000191D2960050601D51E6802E04106FBD504
:104D90001E8853486F2F0CBF08230A23002184F874
:104DA00043106568A560002DA2BF216821F00401B1
:104DB00021600EB9002D4BD01546B6FBF3F103FB75
:104DC0001167C75D05F8017D3746BB420E46F4D931
:104DD000082B0BD12368DE0708D523696168994247
:104DE000DEBF302305F8013C05F1FF35521B22617F
:104DF000CDF800A04B4603AA21464046FFF7E4FE4B
:104E000001304AD14FF0FF3004B0BDE8F08723688D
:104E100043F0200323603348782784F845702368E3
:104E200029681F0651F8046B02D45F0648BFB6B26A
:104E3000DF0748BF43F02003296048BF23601EB945
:104E4000236823F0200323601023A7E72448E4E726
:104E50001546BDE72B6826686169181D2860350670
:104E60001B6801D5196002E07006FBD5198000238C
:104E700023611546BCE72B681A1D2A601D6862680D
:104E800000212846FBF7CCF908B1401B606063683D
:104E90002361002384F84330AAE723692A46494660
:104EA0004046D0470130ADD023689B0713D4E0685B
:104EB000039B9842B8BF1846A6E7012332464946ED
:104EC0004046D04701309DD00135E36803995B1A15
:104ED000AB42F2DCEBE7002504F11906F5E700BF71
:104EE0007E5B00088F5B00088A892DE9F04105464A
:104EF00010070C4658D44B68002B05DC0B6C002BBC
:104F000002DC0020BDE8F081E66A002EF9D0002323
:104F100012F480522F68216A2B6032D0606DA38911
:104F20005A0705D56368C01A636B0BB1236CC01AAE
:104F300000230246E66A216A2846B047431CA3893B
:104F400006D129681D292BD8294A0A41D60727D41A
:104F500000226260D9042269226004D5421C01D17A
:104F60002B6803B96065616B2F600029C9D004F11B
:104F70004403994202D02846FFF7CEFB002060632D
:104F8000C0E701232846B047411CC8D12B68002B3D
:104F9000C5D01D2B01D0162B01D12F60B1E7A389FD
:104FA00043F04003A381ADE70F69002FA9D0930719
:104FB0000E6808BF4B690F6018BF0023A6EB0708F7
:104FC0008B60B8F1000F9CDD216AA66A43463A4621
:104FD0002846B047002806DCA38943F04003A3819C
:104FE0004FF0FF308EE70744A8EB0008E9E700BF69
:104FF000FEFFBFDF38B50B6905460C4613B9002527
:10500000284638BD18B1036A0BB9FFF763F9B4F944
:105010000C30002BF3D0626ED00704D4990502D473
:10502000A06DFFF751FB28462146FFF75DFF636E39
:10503000DA070546E4D4A3899B05E1D4A06DFFF708
:1050400044FBDDE70EB403B5014603AB054853F856
:10505000042B0068019300F085F802B05DF804EBC2
:1050600003B070477800002038B5064D0023044691
:1050700008462B60FDF742F8431C02D12B6803B1B0
:10508000236038BD680F00200A44914200F1FF33CD
:1050900000D1704710B511F8014B03F8014F914250
:1050A000F9D110BD08B5062000F034FA0120FCF754
:1050B000C9FF2DE9F041804614460E4621B9BDE8EE
:1050C000F0411146FFF79CBB2AB9FFF725FB2546A7
:1050D0002846BDE8F08100F039FA8442074602D83C
:1050E000B4EB500F12D821464046FFF789FB054626
:1050F0000028EDD0BC422246314628BF3A46FFF791
:10510000C3FF31464046FFF707FBE1E73546DFE7DF
:105110009368013B002B10B4936008DA9469A342B2
:1051200001DB0A2903D15DF8044B00F035B913689F
:10513000581C1060197008465DF8044B7047F8B5AC
:1051400006460F461446D518AC4201D1002007E0B0
:1051500014F8011B3A463046FFF7DAFF431CF3D13F
:10516000F8BD00002DE9F04F0D469DB0144698465D
:10517000064618B1036A0BB9FFF7ACF86B6ED90796
:1051800005D4AB899A0502D4A86DFFF79DFAAB89C7
:105190001B0701D52B699BB92946304600F03AF927
:1051A00070B16B6EDC0704D54FF0FF301DB0BDE869
:1051B000F08FAB899805F7D4A86DFFF786FAF3E76F
:1051C0000023099320238DF82930CDF80C8030235B
:1051D000DFF8B0818DF82A304FF0010923469A4656
:1051E00013F8012B0AB1252AF9D1BAEB040B0BD025
:1051F0005B46224629463046FFF7A1FF013000F00A
:10520000A980099A5A4409929AF80030002B00F0BC
:10521000A18000234FF0FF32CDE905230AF1010AF6
:10522000049307938DF853301A935446052214F8CB
:10523000011B5448FAF7F4FF049AD8B9D10644BFC9
:1052400020238DF85330130744BF2B238DF85330A0
:105250009AF800302A2B15D0079A544600204FF0B8
:105260000A0C214611F8013B303B092B4DD9B0B156
:10527000079214E0A0EB080309FA03F31343049325
:10528000A246D2E7039B191D1B680391002BBBBFED
:105290005B4242F0020207930793B8BF049223785F
:1052A0002E2B0CD163782A2B34D1039B1A1D1B683B
:1052B0000392002BB8BF4FF0FF3302340593DFF8A1
:1052C000D4A0217803225046FAF7AAFF38B1049BF4
:1052D000A0EB0A004022824013430134049314F8E7
:1052E000011B29488DF828100622FAF799FF00289B
:1052F0003FD0264B1BBB039B073323F00703083328
:105300000393099B3B44099368E70CFB02320C466C
:105310000120A6E700230134059319464FF00A0C3B
:10532000204610F8012B303A092A03D9002BC6D0A9
:105330000591C4E70CFB012104460123F0E703AB10
:1053400000932A46124B04A93046AFF3008007466B
:10535000781CD6D16B6ED90705D4AB899A0502D4D7
:10536000A86DFFF7B2F9AB895B063FF51DAF099851
:105370001CE703AB00932A46054B04A93046FFF710
:1053800091FCE4E76D5B0008775B0008000000001B
:105390003F510008735B0008F8B50E4614460546F9
:1053A00018B1036A0BB9FEF795FFA369A360A3893F
:1053B0001A0725D523691BB323682269981A6369E4
:1053C000F6B28342374604DC21462846FFF712FE38
:1053D000E0B9A368013BA36023685A1C22601E70D9
:1053E0006269431C9A4204D0A389DB0706D50A2EC2
:1053F00004D121462846FFF7FDFD38B93846F8BDEF
:105400002146284600F006F80028D5D04FF0FF3797
:10541000F4E7000038B52A4B054618680C4618B169
:10542000036A0BB9FEF756FFA389B4F90C201807DD
:1054300022D4D90607D409232B6042F04003A3816C
:105440004FF0FF3034E0580712D5616B41B104F1E1
:105450004403994202D02846FFF75EF900236363B4
:10546000A38923F02403A3810023636023692360BD
:10547000A38943F00803A38123694BB9A38903F4EB
:105480002073B3F5007F03D02146284600F08CF846
:10549000A089B4F90C2010F001030AD00023A36006
:1054A00063695B42A361236943B910F08000C4D1F2
:1054B00038BD810758BF6369A360F4E70020F7E7B0
:1054C000780000201F2938B504460D4604D916235C
:1054D00003604FF0FF3038BDC26B12B152F821307B
:1054E0004BB9204600F030F82A4601462046BDE878
:1054F000384000F017B8012B0AD0591C03D11623ED
:1055000003600120E7E7002442F825402846984739
:105510000020E0E7024B01461868FFF7D3BF00BF49
:105520007800002038B5074D002304460846114690
:105530002B60FCF777FD431C02D12B6803B123607D
:1055400038BD00BF680F0020FCF764BD51F8043C73
:10555000181F002BBCBF0B58C018704770B50C4605
:10556000B1F90E10002996B015461E460DDAA38932
:1055700013F0800F4FF000010CBF4FF48063402305
:10558000002031602B6016B070BD6A4600F048F80C
:105590000028ECDB019901F47041A1F50053594258
:1055A00059414FF48063EBE78B8973B59D0706463D
:1055B0000C4607D504F1470323602361012363618F
:1055C00002B070BD01AB6A46FFF7C8FF00990546FF
:1055D0003046FFF715F948B9B4F90C309A05EFD405
:1055E00023F0030343F00203A381E3E7A3892060D0
:1055F00043F08003A381009B6361019B20615BB149
:10560000B4F90E10304600F01DF828B1A38923F03C
:10561000030343F00103A381A3891D43A581CFE7C1
:1056200038B5074D00230446084611462B60FCF7A9
:105630003CFD431C02D12B6803B1236038BD00BF81
:10564000680F002038B5064D0023044608462B603D
:10565000FCF73BFD431C02D12B6803B1236038BD2E
:10566000680F0020F8B500BFF8BC08BC9E46704724
:0C567000F8B500BFF8BC08BC9E467047AF
:10567C0068656C7000000000636C6561720000006E
:10568C00686973746F72790076657273696F6E00F6
:10569C0020000000556E6B6E6F776E20636F6D6D22
:1056AC00616E64206F7220617267756D656E743AFD
:1056BC002025730D0A000000547970652027686559
:1056CC006C702720666F7220617661696C61626C08
:1056DC006520636F6D6D616E64732E0D0A0D0A008B
:1056EC00746F6F206D616E7920617267756D656E78
:1056FC0074730D0A0000000068656C703A20756EBA
:10570C006B6E6F776E20617267756D656E74257345
:10571C00200D0A00636C6561723A2020756E6B6E09
:10572C006F776E20617267756D656E742573200DD1
:10573C000A000000686973746F72793A20756E6B99
:10574C006E6F776E20617267756D656E7425732050
:10575C000D0A000076657273696F6E3A20756E6B78
:10576C006E6F776E20617267756D656E7425732030
:10577C000D0A000056657273696F6E3A2025642E0F
:10578C0025642E25730D0A0D0A00000032303235C7
:10579C00313031370000000025732068656C7000D3
:1057AC000D0A0000417661696C61626C653A00001B
:1057BC004F7074696F6E733A000000000D0A257308
:1057CC0020000000257320000D0A0D0A00000000C7
:1057DC002A2A2A2A2A2A2A2A2A2A2A2A2A2A2A2A1D
:1057EC002A2A2A2A2A2A2A2A2A2A2A2A0D0A00009E
:1057FC0053544D33322055415254205368656C6CD0
:10580C000000000050726F6A6563743A2025730DB6
:10581C000A00000056657273696F6E3A2025642E7B
:10582C0025642E25730D0A00323032353130313774
:10583C000000000053616E746961676F2052696EDD
:10584C00636F6E00417574686F723A2025730D0A90
:10585C00000000002A2A2A2A2A2A2A2A2A2A2A2A44
:10586C002A2A2A2A2A2A2A2A2A2A2A2A2A2A2A2A8C
:10587C000D0A0D0A0000000053544D3332203E2017
:10588C000000000008000000200000000D0A0000CD
:10589C00200800000D0A4572726F723A20436F6D3A
:1058AC006D616E6420746F6F206C6F6E67210D0AD2
:1058BC00000000001B5B324A1B5B48004E6F2063EC
:1058CC006F6D6D616E647320696E20686973746F9F
:1058DC0072792E0D0A000000436F6D6D616E6420AD
:1058EC00686973746F72793A0D0A0000202025756F
:1058FC003A2025730D0A0000417661696C61626C77
:10590C006520636F6D6D616E64733A0D0A0968658D
:10591C006C70202020202D2053686F7720746869CC
:10592C00732068656C700D0A09636C6561722020C8
:10593C00202D20436C6561722073637265656E0D5A
:10594C000A09686973746F7279202D2053686F7718
:10595C0020636F6D6D616E6420686973746F72790A
:10596C000D0A0976657273696F6E202D2053686F6E
:10597C00772076657273696F6E20696E666F0D0A9B
:10598C0054797065202768656C70203C636F6D6D71
:10599C00616E643E2720666F722064657461696C69
:1059AC0073206F6E20612073706563696669632074
:1059BC00636F6D6D616E642E0D0A0D0A00000000A0
:1059CC00636C6561723A20436C6561727320746814
:1059DC0065207465726D696E616C207363726565A8
:1059EC006E2E0D0A0955736167653A20636C65610B
:1059FC007220286E6F20706172616D73290D0A0D13
:105A0C000A000000686973746F72793A2053686FEA
:105A1C0077732074686520636F6D6D616E642068A8
:105A2C006973746F72792E0D0A0955736167653A43
:105A3C0020686973746F727920286E6F20706172A0
:105A4C00616D73290D0A0D0A0000000076657273F2
:105A5C00696F6E3A2053686F7773206669726D7741
:105A6C006172652076657273696F6E20696E666F00
:105A7C00726D6174696F6E2E0D0A095573616765DD
:105A8C003A2076657273696F6E20286E6F20706194
:105A9C0072616D73290D0A0D0A00000000000000F0
:105AAC0000000000010203040607080900000000C2
:105ABC00010203045245454E54206D616C6C6F63BA
:105ACC0020737563636565646564002F6275696C2A
